:100000000C94EC190C941D1A0C941D1A0C941D1AC6
:100010000C941D1A0C941D1A0C941D1A0C941D1A84
:100020000C941D1A0C941D1A0C941D1A0C941D1A74
:100030000C941D1A0C9484830C941D1A0C941D1A94
:100040000C941D1A0C943A5C0C941D1A0C941D1AF5
:100050000C941D1A0C941D1A0C946EDF0C94698577
:100060000C941D1A0C9449390C941D1A0C941D1AE9
:100070000C941D1A0C941D1A0C941D1A0C941D1A24
:100080000C941D1A0C941D1A0C941D1A0C941D1A14
:100090000C941D1A0C941D1A0C941D1A0C941D1A04
:1000A0000C941D1A0C941D1A0C941D1A0C941D1AF4
:1000B0000C941D1A0C941D1A0C941D1A0C941D1AE4
:1000C0000C941D1A0C941D1A0C941D1A0C941D1AD4
:1000D0000C941D1A0C941D1A0C941D1A0C941D1AC4
:1000E0000C941D1AC582C882B782BB82C182FF826E
:1000F000CC82D082D682DA82DE82E482E882EC820E
:10010000FF82F282F682FA8285848A848F849984BF
:10011000A3841C85AD84B584BD84C784D184DB846D
:10012000EA84F4841C85FE84088512854FD15DD154
:1001300071D176D18FD19FD1BAD1CED1F6D2E9D1BA
:10014000F6D2FDD1F6D21CD221D288D29CD2AED228
:10015000B3D2CAD2E2D21FEA2EEA3FEA50EA61EAFB
:1001600072EA83EA94EA24EBA5EA24EB24EBB2EAF0
:10017000084AD73B3BCE016E84BCBFFDC12F3D6C0E
:1001800074319ABD56833DDA3D00C77F11BED9E474
:10019000BB4C3E916BAAAABE000000803F05A84C54
:1001A000CDB2D44EB93836A9020C50B99186880820
:1001B0003CA6AAAA2ABE000000803F000D944B0076
:1001C0004E414E494E495459494E46CDCCCC3D0A3C
:1001D000D7233C17B7D13877CC2B329595E6241F1F
:1001E000B14F0A000020410000C84200401C4620D8
:1001F000BCBE4CCA1B0E5AAEC59D74434F4D4D55E7
:100200004E49434154494F4E0044525952554E00B5
:100210004552524F525300494E464F004543484FB6
:100220000047322F47332062616420706172616D34
:1002300065746572730A00536C6565702E2E2E000E
:10024000206F6620004D424C2047323920706F6984
:100250006E74200059206F7574206F662072616E75
:1002600067652028312D33292E0A0058206F7574B8
:10027000206F662072616E67652028312D33292E2C
:100280000A004D6573682070726F62696E67206442
:100290006F6E652E0A005374617274206D65736809
:1002A0002070726F62696E672077697468202247D8
:1002B0003239205331222066697273742E0A004746
:1002C00032380A473239205332004732392053320C
:1002D0000053746174653A20004D6573682062654F
:1002E00064206C6576656C696E6720686173206E4A
:1002F0006F20646174612E0A0053206F7574206F43
:10030000662072616E67652028302D35292E0A001F
:100310004D65736820706F696E742063616E6E6FD7
:1003200074206265207265736F6C7665640A005292
:100330006573756D696E67207072696E74005369BC
:100340006C656E7443522072656164792E00436C53
:1003500069636B20746F20726573756D652E2E2E28
:10036000005072696E742074696D653A2000507295
:100370006F7465637465642050696E0A006D004691
:10038000696C616D656E7420757365643A20005305
:10039000746174733A20002C204C6F6E676573741F
:1003A000206A6F623A2000546F74616C2074696D2A
:1003B000653A200053746174733A20002C20466122
:1003C000696C65643A20002C2046696E6973686523
:1003D000643A20005072696E74733A20005374615D
:1003E00074733A20004525692025730053696C65B4
:1003F0006E7443522072656164792E001C021702EC
:1004000010020902FB016F66660044454255473AF7
:10041000004B494C4C45442E20004D313133205384
:100420000042656420646F6E652E0020573A0042DA
:1004300065642048656174696E672E007A5F6D6936
:100440006E3A2000795F6D696E3A2000785F6D69C1
:100450006E3A20005265706F7274696E6720656E27
:100460006473746F70207374617475730A00205A1A
:1004700000205900580020204D61783A2000205A71
:1004800000205900580020204D696E3A20004F6E20
:1004900020004F666600536F667420656E64737447
:1004A0006F70733A2000000136372603FF3C3D3859
:1004B0000EFF2E303E12FFFF0C080907FFFF1A1C2B
:1004C00018FFFF08440AFF43FFFFFFFFFFFF206400
:1004D0003A0020693A0020703A0020643A0020690E
:1004E0003A0020703A0043290A0061626C6564207A
:1004F000286D696E2074656D702000436F6C6420F8
:1005000065787472756465732061726520004B6450
:10051000200023646566696E652020444546415588
:100520004C545F004B69200023646566696E65204A
:100530002044454641554C545F004B7020002364D5
:100540006566696E65202044454641554C545F0000
:10055000504944204175746F74756E652066696EEC
:100560006973686564212050757420746865206C17
:10057000617374204B702C204B6920616E64204B9A
:100580006420636F6E7374616E74732066726F6D36
:100590002062656C6F7720696E746F20436F6E66A2
:1005A000696775726174696F6E2E680A00504944FC
:1005B000204175746F74756E65206661696C656441
:1005C000212074696D656F75740A00544845524D59
:1005D000414C2052554E4157415900546865726D47
:1005E000616C2052756E617761790048656174694C
:1005F0006E67206661696C65640048656174696E48
:1006000067206661696C65640050494420417574D7
:100610006F74756E65206661696C65642120546530
:100620006D706572617475726520746F6F20686992
:1006300067680A00204B643A2000204B693A20008A
:10064000204B703A20000A20436C61737369632069
:10065000504944200A002054753A2000204B753A36
:100660002000206D61783A2000206D696E3A2000EC
:1006700020643A200020626961733A20004F666668
:100680000A00466164652048656967687420004215
:100690006564204C6576656C696E6720004661690B
:1006A0006C656420746F20656E61626C65204265C4
:1006B00064204C6576656C696E670A004D657368E9
:1006C00020426564204C6576656C20646174613AF3
:1006D0000A004E6F2063617365206C696768740A55
:1006E000004163746976652045787472756465723B
:1006F0003A2000556E6B6E6F776E20636F6D6D6183
:100700006E643A2022004D6573682056616C6964FE
:100710006174696F6E2053746F707065642E006928
:100720006E206D6F76655F746F282920666565643D
:100730005F76616C756520666F722058593A004C7F
:10074000656176696E672047323600004732362091
:1007500048656174696E67204E6F7A7A6C652E0009
:100760004732362048656174696E67204265642EA1
:1007700000446F6E65205072696D696E6700446F4A
:100780006E65205072696D696E67004669786564B0
:10079000204C656E677468205072696D652E005537
:1007A0007365722D436F6E74726F6C6C656420504C
:1007B00072696D65002C2065793D0029202D3E2051
:1007C0002865783D002C2073793D0020436F6E6EC4
:1007D000656374696E6720776974682076657274E2
:1007E0006963616C206C696E65202873783D002C0C
:1007F0002065793D0029202D3E202865783D002C7C
:100800002073793D0020436F6E6E656374696E6777
:10081000207769746820686F72697A6F6E74616C92
:10082000206C696E65202873783D004C656176699F
:100830006E6720473236002C2079693D0020202049
:10084000446F696E6720636972636C652061743AF6
:10085000202878693D003F53706563696669656467
:1008600020582C5920636F6F7264696E6174652023
:100870006F7574206F6620626F756E64732E0A0048
:100880003F28522965706561742076616C7565201A
:100890006E6F7420706C61757369626C653B206D5E
:1008A000757374206265206174206C6561737420B7
:1008B000312E0A003F537065636966696564206E76
:1008C0006F7A7A6C652074656D706572617475728B
:1008D00065206E6F7420706C61757369626C652E33
:1008E0000A003F5370656369666965642066696CD8
:1008F000616D656E742073697A65206E6F74207007
:100900006C61757369626C652E0A003F5370656394
:100910006966696564207072696D65206C656E67D3
:100920007468206E6F7420706C61757369626C6599
:100930002E0A003F537065636966696564206E6FB7
:100940007A7A6C652073697A65206E6F7420706C9A
:1009500061757369626C652E0A003F537065636947
:10096000666965642052657472616374696F6E2094
:100970004D756C7469706C696572206E6F7420704F
:100980006C61757369626C652E0A003F5265747202
:10099000616374696F6E204D756C7469706C696504
:1009A00072206D757374206265207370656369666B
:1009B0006965642E0A003F53706563696669656402
:1009C000206C6179657220686569676874206E6F54
:1009D0007420706C61757369626C652E0A003F53F8
:1009E0007065636966696564206265642074656D1D
:1009F0007065726174757265206E6F7420706C61C1
:100A0000757369626C652E0A0047323620636F6D1C
:100A10006D616E6420737461727465642E20576119
:100A20006974696E6720666F7220686561746572AB
:100A30002873292E0A0020746F6F206C6F6E672058
:100A4000657874727573696F6E2070726576656E05
:100A50007465640A0020636F6C6420657874727535
:100A600073696F6E2070726576656E7465640A00D6
:100A700024F4D43050C38E20C2A24017828B701150
:100A8000127A910D816CD90AA861E108C7586607EE
:100A9000615143061E4B5D05C145A7041A4111046F
:100AA000093D9803713931034036DB026533910209
:100AB000D4305402802E1D02632CEE01752AC5012C
:100AC000B028A001102781018F2564012B244B0140
:100AD000E0223401AC211F018D200D01801FFC009C
:100AE000841EED00971DDF00B81CD200E61BC60077
:100AF000201BBC00641AB200B219A8000A19A00099
:100B00006A189900D117910040178B00B516840020
:100B100031167E00B31579003A157300C7146F00C3
:100B200058146A00EE1366008813630025135E00F4
:100B3000C7125B006C12570015125400C11151000E
:100B400070114F0021114B00D61049008D10470045
:100B50004610440002104200C00F4000800F3E00CB
:100B6000420F3C00060F3B00CB0E3800930E3700BF
:100B70005C0E3500270E3400F30D3200C10D31003C
:100B8000900D3000600D2E00320D2D00050D2C0053
:100B9000D90C2B00AE0C2900850C29005C0C270019
:100BA000350C27000E0C2600E80B2400C40B240093
:100BB000A00B23007D0B23005A0B2100390B2100D1
:100BC000180B2000F80A1F00D90A1E00BB0A1E00DD
:100BD0009D0A1D00800A1D00630A1C00470A1B00B5
:100BE0002C0A1B00110A1A00F7091A00DD09190066
:100BF000C4091900AB091900920917007B091800F4
:100C0000630917004C091600360916002009160062
:100C10000A091500F5081500E0081400CC081400B6
:100C2000B8081400A4081400900813007D081200EE
:100C30006B0813005808120046081200340811000F
:100C4000230811001208110001081100F00710001C
:100C5000E0071000D0071000C0071000B0070F0019
:100C6000A107100091070E0083070F0074070F0003
:100C700065070E0057070E0049070E003B070D00E1
:100C80002E070E0020070D0013070D0006070D00AC
:100C9000F9060C00ED060D00E0060C00D4060C0071
:100CA000C8060C00BC060C00B0060C00A4060B0025
:100CB00099060C008D060B0082060B0077060B00D0
:100CC0006C060B0061060A0057060B004C060A0072
:100CD00042060A0038060A002E060A0024060A0008
:100CE0001A060A001006090007060A00FD05090099
:100CF000F4050900EB050900E2050900D905090022
:100D0000D0050900C7050900BE050900B5050800A2
:100D1000AD050800A50509009C050800940508001C
:100D20008C050800840508007C050800740508008F
:100D30006C050700650508005D05070056050800FD
:100D40004E05070047050700400508003805070065
:100D5000310507002A050700230507001C050600CA
:100D6000160507000F050700080506000205070025
:100D7000FB040600F5040700EE040600E804060084
:100D8000E2040700DB040600D5040600CF040600D9
:100D9000C9040600C3040600BD040600B70406002B
:100DA000B1040500AC040600A6040600A00405007A
:100DB0009B04060095040500900406008A040500C3
:100DC00085040500800406007A040500750405000A
:100DD000700405006B04050066040500610405004D
:100DE0005C04050057040500520405004D0405008D
:100DF00048040500430405003E0404003A040500CD
:100E000035040500300404002C0405002704040008
:100E1000230405001E0404001A040400160405003F
:100E2000110404000D040400090405000404040076
:100E300000040400FC030400F8030400F4030400AD
:100E4000F0030400EC030400E8030400E4030400DE
:100E5000E0030400DC030400D8030400D40304000E
:100E6000D0030400CC030400C8030300C50303003F
:100E700024F404D9201BC40C5C0E9804C4095F023E
:100E800065077101F405F900FB04B300480487000D
:100E9000C10369005803550003034500BE023A0030
:100EA0008402310053022A00290225000402200096
:100EB000E4011C00C8011900AF01170098011400DB
:100EC00084011300710110006101100051010E0036
:100ED00043010D0036010B002B010B0020010B001C
:100EE000150109000C01090003010800FB000800BE
:100EF000F3000800EB000700E4000600DE00060037
:100F0000D8000600D2000600CC000500C70005008E
:100F1000C2000500BD000400B9000400B5000400D3
:100F2000B1000400AD000400A9000400A500030006
:100F3000A20003009F0004009B0003009800030030
:100F40009500020093000300900003008D00020052
:100F50008B0003008800020086000200840003006A
:100F6000810002007F0002007D0002007B00020081
:100F70007900020077000100760002007400020090
:100F800072000100710002006F0002006D0001009C
:100F90006C0002006A0001006900020067000100A5
:100FA00066000100650001006400020062000100AB
:100FB00061000100600001005F0002005D000100AF
:100FC0005C0001005B0001005A00010059000100B3
:100FD00058000100570001005600010055000100B3
:100FE00054000100530000005300010052000100B2
:100FF00051000100500001004F0001004E000000B0
:101000004E0001004D0001004C0001004B000000AB
:101010004B0001004A0001004900010048000000A7
:1010200048000100470001004600000046000100A2
:10103000450000004500010044000100430000009D
:101040004300010042000000420001004100000096
:1010500041000100400001003F0000003F0001008E
:101060003E0000003E0001003D0000003D00010088
:101070003C0000003C0000003C0001003B00000080
:101080003B0001003A0000003A0001003900000076
:10109000390001003800000038000000380001006D
:1010A0003700000037000100360000003600000065
:1010B0003600010035000000350000003500010059
:1010C0003400000034000000340001003300000050
:1010D0003300000033000100320000003200000045
:1010E0003200010031000000310000003100010039
:1010F0003000000030000000300001002F00000030
:101100002F0000002F0000002F0001002E00000023
:101110002E0000002E0001002D0000002D00000018
:101120002D0000002D0001002C0000002C0000000C
:101130002C0000002C0001002B0000002B00000000
:101140002B0000002B0001002A0000002A000000F4
:101150002A0000002A0001002900000029000000E8
:1011600029000000290000002900010028000000DB
:1011700028000000280000002800000028000100CE
:1011800027000000270000002700000027000000C3
:1011900027000100260000002600000026000000B5
:1011A00026000000260001002500000025000000A8
:1011B000250000002500000025000000250001009A
:1011C000240000002400000024000000240000008F
:1011D0002400010023000000230000002300000081
:1011E0002300000023000000230000002300010072
:1011F0002200000022000000220000002200000067
:101200002200000022000100210000002100000057
:10121000210000002100000021000000210000004A
:10122000210001002000000020000000200000003C
:10123000200000002000000020000000200000002E
:10124000200001001F0000001F0000001F00000020
:101250001F0000001F0000001F0000001F00010011
:101260001E0000001E0000001E0000001E00000006
:101270006265640A002C2073797374656D20737441
:101280006F7070656421204865617465725F4944C0
:101290003A200048656174696E67206661696C6513
:1012A000640048656174696E67206661696C656495
:1012B0000048656174696E67206661696C656400E9
:1012C00048656174696E67206661696C65640010C9
:1012D00000C90210012C014001220170011801B067
:1012E000010E01F00104015002FA00B002F00030DA
:1012F00003E600D003DC009004D2007005C800A013
:1013000006BE000008B400B009AA00D00BA000601F
:101310000E960060118C000015820020197800C024
:101320001D6E00A0226400B0275A00902C500000CF
:10133000314600E0343C0010383200903A2800601A
:101340003C1E00A03D1400803E0A00203F00004DDE
:1013500065736820706F696E742063616E6E6F7460
:10136000206265207265736F6C7665640A004D3487
:10137000323120696E636F727265637420706172BE
:10138000616D657465722075736167650A004F66EB
:101390006673657473206170706C69656400457272
:1013A000723A20546F6F206661722100546F6F2073
:1013B0006661722066726F6D207265666572656E19
:1013C000636520706F696E740A002045302000202C
:1013D0005A20002059200020582000537465707056
:1013E0006572206472697665722063757272656ECB
:1013F000743A0A0020440020490020204D33303444
:1014000020500020440020490020204D333031205E
:1014100050005049442073657474696E67733A0ACA
:101420000020460020420020480020204D31343565
:101430002053004D6174657269616C206865617448
:10144000757020706172616D65746572733A0A001F
:10145000205A002059002020473239205333205889
:1014600000205A0020204D3432302053004D657347
:101470006820426564204C6576656C696E673A0A3F
:1014800000205A0020590020204D323036205800CC
:10149000486F6D65206F66667365743A0A00204573
:1014A00000205A00205900205800204200205400FB
:1014B00020204D323035205300416476616E6365E3
:1014C000643A20533C6D696E5F6665656472617451
:1014D000653E20543C6D696E5F74726176656C5F29
:1014E00066656564726174653E20423C6D696E5F3D
:1014F0007365676D656E745F74696D655F75733E66
:1015000020583C6D61785F78795F6A65726B3E2028
:101510005A3C6D61785F7A5F6A65726B3E20453C2C
:101520006D61785F655F6A65726B3E0A00205400EA
:1015300020520020204D323034205000416363653A
:101540006C65726174696F6E2028756E6974732F93
:101550007332293A20503C7072696E745F61636324
:10156000656C3E20523C726574726163745F6163A6
:1015700063656C3E20543C74726176656C5F616398
:1015800063656C3E0A00204500205A002059002067
:10159000204D3230312058004D6178696D756D20D5
:1015A000416363656C65726174696F6E2028756E46
:1015B0006974732F7332293A0A00204500205A00BB
:1015C00020590020204D3230332058004D61786979
:1015D0006D756D206665656472617465732028752C
:1015E0006E6974732F73293A0A00204500205A004F
:1015F00020590020204D39322058005374657073F3
:101600002070657220756E69743A0A0020204D3290
:1016100030302044300A0020204D32303020440049
:101620002044697361626C65640A0046696C616D8F
:10163000656E742073657474696E67733A00202058
:101640004D3134392043203B20556E697473206935
:101650006E2043656C736975730A00202047323130
:10166000202020203B20556E69747320696E206D08
:101670006D0A004B494C4C45442E2000202D20493A
:101680006E76616C69642065787472756465722029
:101690006E756D62657220210A001FFFFFFFFFFF5C
:1016A000FF600000000001FF400000000000FF801C
:1016B00000000000007F83CF00000C303F87FF80D8
:1016C000000C301F867980000C000F8C30C7838C93
:1016D00030E78C30CFC7CC31F38C30DCECEC33B955
:1016E0008C30D86C6C33198C30D06C0C33198C3036
:1016F000D86C0C33198C30DC6C0E3B198C30CF7CE1
:10170000079F198C30C77C038F1940000000000030
:1017100002600000000000061FFFFFFFFFFFF8202F
:1017200020506C616E6E65724275666665724279B4
:101730007465733A20002046726565204D656D6FB3
:1017400072793A2000436F6D70696C65643A20418C
:10175000707220313820323031380A00207C20412C
:101760007574686F723A2028416C656B73616E64A2
:10177000657220536F626F6C6577736B69290A001D
:10178000323031372D31322D32352031323A30304E
:1017900000204C61737420557064617465643A2054
:1017A00000312E312E380A004D61726C696E0020B6
:1017B000536F6674776172652052657365740A00B1
:1017C000205761746368646F672052657365740A9B
:1017D000002042726F776E206F75742052657365BA
:1017E000740A002045787465726E616C20526573CE
:1017F00065740A00506F77657255700A00737461E2
:1018000072740A00456E6473746F707320256320D0
:10181000256320256320256300205A3A0020593A89
:101820000020583A00656E6473746F7073206869A5
:10183000743A2000486F6D65202573257325732049
:101840006669727374002066697273740A005A00C4
:1018500059005800486F6D6520006563686F3A0055
:101860004572726F723A00526573746F72652066CA
:1018700061696C73616665004C6F616420736574A7
:1018800074696E677300496E697469616C697A6521
:1018900020454550524F4D0053746F72652073655B
:1018A0007474696E67730046696C616D656E74006F
:1018B0004D6F74696F6E0054656D706572617475FB
:1018C0007265004D61696E005072656865617420D3
:1018D00041425320636F6E660050726568656174A3
:1018E00020504C4120636F6E66005049442D4400E7
:1018F0005049442D44005049442D49005049442D3D
:1019000049005049442D50005049442D50002008B2
:10191000204661637400200820466163740020083B
:10192000204D6178002008204D6178002008204D6E
:101930006178002008204D696E002008204D696EF6
:10194000002008204D696E004F6666004F6E200033
:101950004175746F74656D700046616E20737065BB
:10196000656420320046616E2073706565642032C4
:101970000046616E20737065656420320046616EBA
:1019800020737065656420310046616E2073706558
:10199000656420310046616E207370656564203196
:1019A0000042656400426564004E6F7A7A6C65009F
:1019B0004E6F7A7A6C6500436F6E74726F6C005371
:1019C000746F72652073657474696E677300426525
:1019D000640042656400426564004E6F7A7A6C650B
:1019E000004E6F7A7A6C65004E6F7A7A6C650046AD
:1019F000616E2073706565640046616E207370656A
:101A000065640046616E2073706565640054656DA1
:101A10007065726174757265005654726176206DDE
:101A2000696E005654726176206D696E005654726C
:101A30006176206D696E00566D696E00566D696E37
:101A400000566D696E00566D6178204500566D61D7
:101A500078204500566D6178204500566D617820EC
:101A60005A00566D6178205A00566D6178205A00F0
:101A7000566D6178205900566D6178205900566D79
:101A80006178205900566D6178205800566D617854
:101A9000205800566D61782058004D6F74696F6E44
:101AA00000416D6178204500416D6178204500411D
:101AB0006D6178205A00416D6178205A00416D6156
:101AC00078205900416D6178205900416D6178207E
:101AD0005800416D6178205800412D74726176651F
:101AE0006C00412D74726176656C00412D726574D5
:101AF0007261637400412D72657472616374004198
:101B00006363656C00416363656C004D6F74696F5E
:101B10006E0056652D6A65726B0056652D6A65729A
:101B20006B0056652D6A65726B00567A2D6A657278
:101B30006B00567A2D6A65726B0056792D6A657254
:101B40006B0056792D6A65726B0056792D6A657245
:101B50006B0056782D6A65726B0056782D6A657237
:101B60006B0056782D6A65726B004D6F74696F6EED
:101B7000004573746570732F6D6D004573746570E7
:101B8000732F6D6D005A73746570732F6D6D005AED
:101B900073746570732F6D6D005973746570732F56
:101BA0006D6D005973746570732F6D6D005873748B
:101BB0006570732F6D6D005873746570732F6D6D44
:101BC000004D6F74696F6E0053746570732F6D6D87
:101BD000004A65726B00416363656C65726174698C
:101BE0006F6E0056656C6F6369747900436F6E7435
:101BF000726F6C0046696C2E204469612E00466944
:101C00006C2E204469612E004F6666004F6E2000E6
:101C10004520696E206D6D3300436F6E74726F6C7A
:101C20000000457874727564656420746F74616C2B
:101C30003A2000256C642E25696D00004C6F6E679C
:101C4000657374206A6F622074696D653A200000C4
:101C5000546F74616C207072696E742074696D6564
:101C60003A2000436F6D706C657465643A200050D3
:101C700072696E7420436F756E743A200000002103
:101C800000240027002A002D00300033000101004D
:101C900000040107010A0100000A0B02090C0D0EE5
:101CA000080703040100000000000000000000001D
:101CB0000000000000000000000000000000000024
:101CC00000000012111000000000000000000000E1
:101CD0000000000000000000000000000002256974
:101CE000730025696D2025697300256968202569C1
:101CF0006D202569730025696420256968202569A0
:101D00006D2025697300256979202569642025697E
:101D1000682025696D2025697300656E717565758C
:101D200065696E672022004C696E65204E756D6294
:101D30006572206973206E6F74204C617374204C3F
:101D4000696E65204E756D6265722B312C204C6179
:101D50007374204C696E653A20004B494C4C4544E5
:101D60002E200053544F505045442E20005072698D
:101D70006E7465722073746F70706564206475652D
:101D800020746F206572726F72732E2046697820FE
:101D9000746865206572726F7220616E642075735D
:101DA00065204D39393920746F2072657374617202
:101DB000742E202854656D7065726174757265208B
:101DC00069732072657365742E205365742069747D
:101DD0002061667465722072657374617274696ED5
:101DE00067290A004E6F20436865636B73756D2029
:101DF00077697468206C696E65206E756D626572B6
:101E00002C204C617374204C696E653A2000636825
:101E100065636B73756D206D69736D617463682C98
:101E2000204C617374204C696E653A20004D31314D
:101E3000300020496E76616C696420657874727533
:101E40006465722000000000000000000000000037
:101E5000000000A043000096430000C843486561AD
:101E600074696E6720646F6E652E0020573A0045D6
:101E700025692025730053696C656E744352207286
:101E8000656164792E004D31343520533C696E64B0
:101E900065783E206F7574206F662072616E67658D
:101EA0002028302D31290A0053696C656E74435225
:101EB000204F66662E00205A3A0020593A002043EF
:101EC0006F756E7420583A0020453A00205A3A0047
:101ED00020593A00583A003A004361703A00454DA3
:101EE000455247454E43595F504152534552004376
:101EF0004153455F4C494748545F42524947485413
:101F00004E45535300544F47474C455F4C49474853
:101F1000545300534F4654574152455F504F574515
:101F200052004255494C445F50455243454E54007F
:101F30004C4556454C494E475F44415441005A5F19
:101F400050524F4245004155544F4C4556454C0068
:101F50005052494E545F4A4F420050524F475245EB
:101F60005353004155544F5245504F52545F5445BE
:101F70004D5000564F4C554D455452494300454530
:101F800050524F4D0053455249414C5F584F4E5FA0
:101F9000584F4646004649524D574152455F4E41C3
:101FA0004D453A4D61726C696E20312E312E3820CC
:101FB000284769746875622920534F555243455F1D
:101FC000434F44455F55524C3A68747470733A2FCE
:101FD0002F6769746875622E636F6D2F4D61726C27
:101FE000696E4669726D776172652F4D61726C69B9
:101FF0006E2050524F544F434F4C5F5645525349F9
:102000004F4E3A312E30204D414348494E455F54A2
:102010005950453A53696C656E7443522045585483
:1020200052554445525F434F554E543A3120555511
:1020300049443A63656465326132662D34316132F8
:102040002D343734382D396231322D6335356336CE
:10205000326633363766660A002F2F2000536574C8
:1020600074696E672054726176656C2041636365A4
:102070006C65726174696F6E3A200053657474699F
:102080006E67205265747261637420416363656C8E
:1020900065726174696F6E3A200053657474696E7D
:1020A00067205072696E7420416363656C6572616C
:1020B00074696F6E3A200053657474696E672050BE
:1020C00072696E7420616E642054726176656C2052
:1020D000416363656C65726174696F6E3A2000F4E8
:1020E000010000F4010000640000008813000000FB
:1020F00000FA430000FA430000A0400000C841007D
:1021000000A0420000A0420000C8430000BA4250B4
:1021100072656865617420504C4120456E640050C2
:1021200072656865617420504C41204265640050BE
:1021300072656865617420504C4100507265706131
:102140007265005072656865617420414253204594
:102150006E6400507265686561742041425320428C
:102160006564005072656865617420414253005097
:10217000726570617265004261636B004E657874D0
:1021800020636F726E6572004C6576656C696E6770
:1021900020446F6E6521004D6F7665205A004732EE
:1021A00039205332004E65787420506F696E740088
:1021B0002569202F202575004732392053310047EB
:1021C000323920533200436C69636B20746F2042B4
:1021D0006567696E00486F6D696E672058595A00CF
:1021E0004732380053746F72652073657474696E7A
:1021F0006773004C6F61642073657474696E6773F4
:10220000004C6576656C20636F726E657273004C6E
:102210006576656C2062656400426564205A004200
:102220006564205A00466164652048656967687482
:10223000004661646520486569676874004F66669A
:10224000004F6E2000426564204C6576656C696EB7
:10225000670050726570617265004D34323800500D
:1022600072656865617420504C4100436F6F6C6407
:102270006F776E005072656865617420414253004B
:1022800044697361626C6520737465707065727304
:10229000004D38340053657420686F6D65206F669B
:1022A000667365747300426564204C6576656C697D
:1022B0006E6700486F6D65205A00473238205A001B
:1022C000486F6D65205900473238205900486F6DBE
:1022D000652058004732382058004175746F2068D7
:1022E0006F6D6500473238004D6F76652061786903
:1022F00073004D61696E004D6F76652058004D6F1B
:1023000076652059004D6F7665205A0045787472C5
:1023100075646572004D6F766520302E316D6D00ED
:102320004D6F766520316D6D004D6F7665203130D3
:102330006D6D004D6F766520617869730045787426
:102340007275646572004D6F7665205A004D6F7628
:10235000652059004D6F7665205800457874727578
:10236000646572004D6F7665205A004D6F7665206A
:1023700059004D6F76652058005072657061726526
:1023800000496E697469616C697A652045455052EF
:102390004F4D00436F6E74726F6C0000060900FEB3
:1023A0000701920321207FFF07FF07FF00000006BF
:1023B0000000010707060200808080808000800303
:1023C0000202060105A0A00507070600005050F80C
:1023D00050F850500507070600002078A07028F03C
:1023E00020050707060000C0C81020409818050700
:1023F000070600006090A040A89068020303060151
:1024000004C0408003070706010020408080804010
:10241000200307070601008040202020408005059A
:102420000506000120A870A820050505060001206A
:1024300020F820200203030602FFC04080050101AE
:10244000060003F8020202060200C0C005050506E8
:1024500000010810204080050707060000708888EA
:102460008888887003070706010040C0404040404C
:10247000E0050707060000708808708080F80507EF
:1024800007060000F81020100808F00507070600EE
:102490000010305090F81010050707060000F88073
:1024A000F008088870050707060000708080F08833
:1024B0008870050707060000F80810202020200576
:1024C000070706000070888870888870050707066F
:1024D000000070888878080870020505060200C0B0
:1024E000C000C0C00206060602FFC0C000C0408097
:1024F0000407070600001020408040201005030359
:10250000060002F800F804070706010080402010CA
:102510002040800507070600007088081020002072
:1025200005070706000070880868A8A87005070757
:10253000060000708888F88888880507070600006C
:10254000F08888F08888F00507070600007088800A
:1025500080808870050707060000F08888888888D2
:10256000F0050707060000F88080F08080F8050776
:1025700007060000F88080F08080800507070600CD
:1025800000708880B8888870050707060000888872
:1025900088F888888801070706020080808080808C
:1025A00080800507070600003810101010906005A5
:1025B00007070600008890A0C0A0908805070706BE
:1025C0000000808080808080F80507070600008872
:1025D000D8A8888888880507070600008888C8A8C2
:1025E00098888805070706000070888888888870A2
:1025F000050707060000F08888F08080800507073F
:1026000006000070888888A8906805070706000003
:10261000F08888F0A0908805070706000078808081
:10262000700808F0050707060000F8202020202089
:1026300020050707060000888888888888700507B5
:10264000070600008888888888502005070706004C
:10265000008888888888A8500507070600008888B1
:102660005020508888050707060000888888502079
:102670002020050707060000F80810204080F80316
:102680000707060100E08080808080E005050506E0
:1026900000018040201008030707060100E0202009
:1026A000202020E0050303060004205088050101D6
:1026B000060000F802020206020580400505050634
:1026C000000070087888780507070600008080B051
:1026D000C88888F0050505060000708080887005B0
:1026E0000707060000080868988888780505050629
:1026F00000007088F880700507070600003048E089
:10270000404040400506060600FF70888878087043
:102710000507070600008080B0C888888801070781
:10272000060200800080808080800308080601FF88
:10273000200020202020A040040707060000808001
:1027400090A0C0A090030707060100C04040404091
:1027500040E0050505060000D0A8A8A8A8050505C5
:10276000060000B0C8888888050505060000708846
:102770008888700506060600FFF08888F0808005CE
:1027800006060600FF788888780808050505060013
:1027900000B0C880808005050506000070807008C4
:1027A000F00407070600004040E0404040300505C7
:1027B00005060000888888986805050506000088D9
:1027C000888850200505050600008888A8A85005BF
:1027D000050506000088502050880506060600FF03
:1027E000888888780870050505060000F8102040E4
:1027F000F803070706010020404080404020010701
:102800000706020080808080808080030707060121
:10281000008040402040408005020206000268908F
:102820000000000600006F6B0020746F6F206C6F5B
:102830006E6720657874727573696F6E207072654B
:1028400076656E7465640A0020636F6C6420657839
:1028500074727573696F6E2070726576656E7465DB
:10286000640A00627573793A20706175736564203B
:10287000666F7220696E7075740A00627573793ABA
:102880002070617573656420666F72207573657260
:102890000A00627573793A2070726F6365737369A9
:1028A0006E670A004B494C4C45442E20004B494C66
:1028B0004C20636175736564206279204B494C4CF0
:1028C00020627574746F6E2F70696E0A004B494CEC
:1028D0004C45442E20004B494C4C20636175736578
:1028E0006420627920746F6F206D75636820696E53
:1028F0006163746976652074696D65202D20637548
:102900007272656E7420636F6D6D616E643A200043
:10291000506C65617365207265736574005052492F
:102920004E5445522048414C544544005072696E03
:102930007465722068616C7465642E206B696C6CC0
:1029400028292063616C6C6564210A000006090077
:10295000FE000000000001090008FE000005080854
:1029600006000040F0C8888898781005080806001E
:1029700000C0F88888888888F805050506000120C9
:1029800030F830200508080600002070F8202020CC
:1029900020E00509090600FF2070A8A8B888887003
:1029A000200509090600FFE080C0B0A828302828CB
:1029B0000509090600FFF8A88888888888A8F8050E
:1029C0000A0A0600FE205050505088A8A8887003BC
:1029D000030306000340A0405A0059005800092094
:1029E000000000000000000000000000007FFFE089
:1029F0000000000000000000000000007000E00087
:102A0000000000000000000000000061F86000000D
:102A10000000000000000000000041F8200000005D
:102A200000000000000000000040F0200000000056
:102A300000000000000000004060200000000000D6
:102A4000000000000000005801A07F80000000008E
:102A50000000004104005C63A0FFC0000000000013
:102A600000002082005EF7A0FFC000000000000010
:102A7000002082005EF7A0FFC00000000000000000
:102A80004104005C63A07F80000000000000008221
:102A900008005801A07F8000000000000001041021
:102AA00000406020FFC00000000000000104100092
:102AB00040F020FFC000000000000000820800413C
:102AC000F820FFC00000000000000041040061F891
:102AD000603F00000000000000000000007000E007
:102AE0001E0000000000000001FFFF807FFFE00CDF
:102AF0000000000000000001FFFF80000000000057
:102B0000000000000000000000007FFFE000000067
:102B10000000000000000000007000E00000000065
:102B20000000000000000000630C600000000000D6
:102B300000000000000000470E2000000000000020
:102B40000000000000004F0F200000000000000007
:102B500000000000005F0FA0000000000000000067
:102B6000000000005E07A07F800000000000000061
:102B7000410400406020FFC0000000000000002071
:102B8000820040F020FFC000000000000000208212
:102B90000040F020FFC000000000000000410400E1
:102BA0004060207F80000000000000008208005E7E
:102BB00007A07F80000000000000010410005F0FEC
:102BC000A0FFC0000000000000010410004F0F2013
:102BD000FFC000000000000000820800470E20FF38
:102BE000C000000000000000410400630C603F00D2
:102BF000000000000000000000007000E01E000067
:102C0000000000000001FFFF807FFFE00C000000DB
:102C10000000000001FFFF80000000747275650075
:102C200066616C736500747275650066616C7365CE
:102C300000747275650066616C736500313D2E31FC
:102C40003800303D2E333235002F3331002F3331F1
:102C5000002F333100747275650066616C73650016
:102C6000206E6F7420656E74657265642E0A000AAA
:102C70004D6561737572656420706F696E74733A27
:102C80000A005A206F66667365743A20004E756DAF
:102C900020582C593A20332C330A004E6F206D6F88
:102CA00076652E006F6E2E0A006F66662E0A00474C
:102CB000323620446562756720006F6B000000208B
:102CC000002300260029002C002F00320000010004
:102CD0000003010601090100002200250028002B45
:102CE000002E003100340002010000050108010B34
:102CF0000105050505070508080808020202020A81
:102D00000A0808040404040101010101010101038E
:102D100003030303030303040707070C0C0C0C0C49
:102D20000C0C0C0202020206060606060606060B3C
:102D30000B0B0B0B0B0B0B010210202008081020B3
:102D40004010204080020102010804020101020437
:102D500008102040808040201008040201800402F6
:102D6000018040201008040201080402010102044D
:102D70000810204080010204081020408025753A88
:102D80002530327500253032753A253032750025F0
:102D9000756420253032753A25303275003A0020AE
:102DA00063757272656E74206465637265617365C4
:102DB0006420746F200020647269766572206F76DB
:102DC000657274656D706572617475726520776186
:102DD000726E696E67212028003A2000447269767D
:102DE0006572206572726F720000000000000000C2
:102DF000000000000000004842000048420000803F
:102E000040000000005761726E696E673A20486F9B
:102E10006D696E672042756D702044697669736FC5
:102E200072203C20310A000202040000A040000091
:102E3000A040000000400000A043000096430000B6
:102E4000C843FFFFFF70012C0190012701B0012250
:102E500001C0011D01F00118011002130130020E22
:102E6000016002090190020401C002FF000003FAA0
:102E7000004003F5008003F000D003EB002004E6DF
:102E8000007004E100E004DC004005D700C005D27A
:102E9000004006CD00D006C8008007C3003008BE41
:102EA00000F008B900C009B400B00AAF00B00BAA26
:102EB00000D00CA500000EA000500F9B00C0109683
:102EC000005012910000148C00C0158700B01782CA
:102ED00000B0197D00D01B7800001E730040206EEA
:102EE0000090226900F024640040275F0090295A76
:102EF00000E02B5500102E500020304B00103246C1
:102F000000E033410090353C001037370070383214
:102F100000A0392D00B03A2800A03B2300603C1EE1
:102F200000103D1900903D1400103E0F00703E0A45
:102F300000C03E0500003F0000403FFBFF803FF621
:102F4000FFC03FF1FF544845524D414C2052554E71
:102F50004157415900546865726D616C2052756E1D
:102F600061776179004572723A204D494E54454D62
:102F70005020424544004572723A204D494E544516
:102F80004D50004D494E54454D502074726967674D
:102F900065726564004572723A204D415854454D42
:102FA0005020424544004572723A204D41585445E4
:102FB0004D50004D415854454D502074726967671B
:102FC0006572656400202F002042403A0020403A9C
:102FD000004572726F722077726974696E6720742F
:102FE0006F20454550524F4D210A00203D2030783A
:102FF0000058005800580058005800580058005811
:103000000058000900206178697320647269766550
:10301000722063757272656E743A20007472756501
:103020000066616C73650020617869732074656D5A
:103030007065726174757265207072657761726E09
:10304000207472696767657265643A200020707247
:10305000657761726E20666C616720636C65617272
:1030600065640A0041626F7574205072696E746500
:103070007200436F6E74726F6C0050726570617293
:10308000650054756E6500496E666F2073637265E6
:10309000656E004261627973746570205A00426106
:1030A000627973746570205A00466C6F7700466CC5
:1030B0006F770046616E207370656564203200464C
:1030C000616E20737065656420320046616E207306
:1030D0007065656420320046616E207370656564BA
:1030E00020310046616E20737065656420310046B2
:1030F000616E207370656564203100426564004232
:103100006564004E6F7A7A6C65004E6F7A7A6C65F2
:1031100000426564205A00426564205A005370657D
:103120006564005370656564005370656564004DA7
:1031300061696E004D61782054656D703A203132BE
:1031400030004D696E2054656D703A203500544250
:1031500065643A4154432031303447542D32004D98
:1031600061782054656D703A20323735004D696EB4
:103170002054656D703A20350054303A2045504354
:103180004F53203130304B005053553A2047656E35
:10319000657269630050726F746F636F6C3A2031AF
:1031A0002E3000426175643A2032353030303000C4
:1031B0004D4B53203E2076312E33004D65736820F1
:1031C0004C6576656C696E670045787472756465E8
:1031D00072733A203100687474703A2F2F6D6172E7
:1031E0006C696E66772E6F72670053696C656E74DA
:1031F000435200323031372D31322D3235203132C9
:103200003A303000312E312E38004D61726C696ECB
:10321000005072696E746572205374617473005447
:103220006865726D6973746F727300426F61726466
:1032300020496E666F005072696E74657220496E27
:10324000666F004D61696E00447269766572207226
:1032500065676973746572733A0A006F7409006F69
:10326000747077090073326761090073326762090D
:10327000006F6C6109006F6C6209007374737409EC
:10328000006673616374697665090073675F7265D0
:1032900073756C7409007374616C6C67756172642A
:1032A0000900445256535441545553005374616CB1
:1032B0006C67756172642074687273002D73746139
:1032C00072740900687973746572697369730A2D81
:1032D000656E640900626C616E6B2074696D6500D7
:1032E0006F66662074696D6509004F5420707265C1
:1032F0007761726E206861730A6265656E20747210
:1033000069676765726564004F5420707265776104
:10331000726E005B6D6D2F735D090070776D0A74BE
:1033200068726573686F6C64090074737465700902
:10333000006D73746570730900737465616C7468F3
:1033400043686F70007673656E7365090050574D62
:10335000207363616C650043532061637475616C15
:103360000900486F6C642063757272656E74005258
:10337000756E2063757272656E74004D41582063DE
:10338000757272656E7400524D532063757272656A
:103390006E74005365742063757272656E740045B7
:1033A0006E61626C65640900617869733A70776D6B
:1033B0005F7363616C65207C7374617475735F7295
:1033C0006573706F6E73657C0A00090052657365E2
:1033D0006E643A200000DE0011241FBECFEFD1E260
:1033E000DEBFCDBF00E00CBF14E0A0E0B2E0EEED28
:1033F000F3E202E00BBF02C007900D92AC36B107BA
:10340000D9F723E1ACE6B4E001C01D92A23BB207BC
:10341000E1F719E1CCEED9E100E006C021970109FE
:10342000802FFE010F948911CB3ED10780E0080761
:10343000A9F70E94F9FA0D94ED110C9400002F9257
:103440003F924F925F926F927F928F929F92AF9234
:10345000BF92CF92DF92EF92FF920F931F93CF9381
:10346000DF93CDB7DEB7C259D1090FB6F894DEBFEE
:103470000FBECDBF81E090E09093051180930411C1
:103480008091A60A8D3411F40C947E26843511F4B3
:103490000C94C434873411F00C9400358091A40A44
:1034A0009091A50A8A31910511F40C94F1229CF4B3
:1034B000843091053CF482309105DCF597FF32C0F1
:1034C0000C9417358430910509F4C0C50C9709F4A4
:1034D00003C60C9417358A32910511F40C94EF252C
:1034E00074F48C31910511F40C94882314F40C9429
:1034F000F5224D9711F40C948D230C9417358B35D0
:10350000910511F40C946F258C35910511F40C94F0
:1035100074258A35910511F00C94173510927004BA
:103520000C94173580910E0281110C941E350C9469
:10353000173520910E02222311F40C94173511E057
:10354000029709F010E00E9450D482E50E94083AE8
:10355000882309F44AC10E94A2396B017C01409082
:103560008A0C50908B0C60908C0C70908D0C20917C
:103570008E0C30918F0C4091900C5091910C2EAB91
:103580003FAB48AF59AF8091AE0C9091AF0CA0917A
:10359000B00CB091B10C8AAF9BAFACAFBDAF209176
:1035A000B20C3091B30C4091B40C5091B50C2A96EA
:1035B0002CAF3DAF4EAF5FAF2A9720E030E0A901BE
:1035C000C701B6010F94230A882309F425C5A30176
:1035D00092016AAD7BAD8CAD9DAD0F94230A811134
:1035E0000FC02EA93FA948AD59AD2A966CAD7DAD4F
:1035F0008EAD9FAD2A970F94230A882309F40CC53A
:1036000020E030E0A901C701B6010F94230A881F0A
:103610008827881F18130BC080E090E0A0E8BFE364
:1036200062968CAF9DAFAEAFBFAF62970AC020E08D
:1036300030E040E85FEB62962CAF3DAF4EAF5FAF3E
:103640006297A30192016AAD7BAD8CAD9DAD0F94E5
:103650008C0E26966CAF7DAF8EAF9FAF26972EA9AE
:103660003FA948AD59AD2A966CAD7DAD8EAD9FADED
:103670002A970F948C0E2E966CAF7DAF8EAF9FAFB6
:103680002E9726962CAD3DAD4EAD5FAD2697CA0167
:10369000B9010F94880A4B015C012E962CAD3DAD0B
:1036A0004EAD5FAD2E97CA01B9010F94880A9B01F8
:1036B000AC01C501B4010F948D0E0F94F810229641
:1036C0006CAF7DAF8EAF9FAF229720E030E040E03F
:1036D0005FE30F94880A4B015C01A7019601C701C3
:1036E000B6010F94880A6B017C01A5019401C50104
:1036F000B4010F94880A9B01AC01C701B6010F9475
:103700008C0E0F94F8109B01AC0162966CAD7DADF0
:103710008EAD9FAD62970F94880A4B015C012AAD74
:103720003BAD4CAD5DADC301B2010F948D0E20E0F9
:1037300030E040E05FE30F94880A6B017C012E9635
:103740006CAD7DAD8EAD9FAD2E97905822962CAD71
:103750003DAD4EAD5FAD22970F94690F9B01AC015B
:10376000C501B4010F94880A9B01AC01C701B601E1
:103770000F948D0EA30192010F948C0E6B017C01AE
:103780002A962CAD3DAD4EAD5FAD2A976EA97FA9AF
:1037900088AD99AD0F948D0E20E030E040E05FE3FE
:1037A0000F94880A2B013C0122962CAD3DAD4EAD05
:1037B0005FAD229726966CAD7DAD8EAD9FAD269701
:1037C0000F94690F9B01AC01C501B4010F94880AE5
:1037D0009B01AC01C301B2010F948D0E2EA93FA92C
:1037E00048AD59AD0F948C0E14C089E40E94083A7C
:1037F000882329F00E94A2396B017C0103C0C12CEF
:10380000D12C76018AE40E94083A8823F9F00E94BC
:10381000A2392A966CAF7DAF8EAF9FAF2A9720E07A
:1038200030E0A901C701B6010F94230A81111EC01F
:1038300020E030E0A9012A966CAD7DAD8EAD9FAD44
:103840002A970F94230A811111C0E6C320E030E0CB
:10385000A901C701B6010F94230A882309F4DCC328
:103860002A961CAE1DAE1EAE1FAE2A97D701C6010A
:10387000B0588EAB9FABA8AFB9AF2A962CAD3DAD7B
:103880004EAD5FAD2A9750582AAF3BAF4CAF5DAFFE
:103890009C01AD01BC01CD010F94880A4B015C0174
:1038A0002AAD3BAD4CAD5DADCA01B9010F94880A9C
:1038B0009B01AC01C501B4010F948D0E0F94F8105B
:1038C000A2966CAF7DAF8EAF9FAFA29780918A0C0E
:1038D00090918B0CA0918C0CB0918D0C22968CAF9A
:1038E0009DAFAEAFBFAF2297A7019601BC01CD013E
:1038F0000F948D0E62966CAF7DAF8EAF9FAF6297C7
:1039000020918E0C30918F0C4091900C5091910C25
:103910002E962CAF3DAF4EAF5FAF2E972A962CADB3
:103920003DAD4EAD5FAD2A972E966CAD7DAD8EADA3
:103930009FAD2E970F948D0E66966CAF7DAF8EAFB8
:103940009FAF66978091AE0C9091AF0CA091B00C98
:10395000B091B10C6A968CAF9DAFAEAFBFAF6A9716
:1039600062962CAD3DAD4EAD5FAD6297BC01CD0111
:103970000F948C0E6B017C012091B20C3091B30C32
:103980004091B40C5091B50C6E962CAF3DAF4EAF3C
:103990005FAF6E9766962CAD3DAD4EAD5FAD669751
:1039A0006E966CAD7DAD8EAD9FAD6E970F948C0E07
:1039B0004B015C018091920C9091930CA091940C1E
:1039C000B091950CAA968CAF9DAFAEAFBFAFAA9742
:1039D0009C01AD016091B60C7091B70C8091B80C50
:1039E0009091B90C0F948C0E26966CAF7DAF8EAF74
:1039F0009FAF26972091BA0C3091BB0C4091BC0C24
:103A00005091BD0CA6962CAF3DAF4EAF5FAFA697C1
:103A10008091960C9091970CA091980CB091990C74
:103A2000AE968CAF9DAFAEAFBFAFAE97A70196017C
:103A30006EA97FA988AD99AD0F94880A2B013C012E
:103A4000A50194016AAD7BAD8CAD9DAD0F94880A44
:103A50009B01AC01C301B2010F948D0E2B013C01FF
:103A6000A50194016EA97FA988AD99AD0F94880A2C
:103A70004B015C01A70196016AAD7BAD8CAD9DAD9C
:103A80000F94880A9B01AC01C501B4010F948C0E00
:103A9000A30192010F94000F6B017C0120E030E044
:103AA000A9010F94230A87FF0AC02BED3FE049ECE0
:103AB00050E4C701B6010F948D0E6B017C011123F8
:103AC00051F02BED3FE049EC50E4C701B6010F94F3
:103AD0008C0E6B017C0120E030E0A901C701B6012A
:103AE0000F94230A811128C06A962CAD3DAD4EADCE
:103AF0005FAD6A9722966CAD7DAD8EAD9FAD22977E
:103B00000F94230A811118C06E962CAD3DAD4EADB9
:103B10005FAD6E972E966CAD7DAD8EAD9FAD2E9741
:103B20000F94230A811108C0FBEDCF2EFFE0DF2E9A
:103B3000F9ECEF2EF0E4FF2EA2962CAD3DAD4EAD8C
:103B40005FADA297C701B6010F94880A9B01AC0133
:103B50000F94880A4B015C0126962CAD3DAD4EAD0D
:103B60005FAD2697CA01B9010F94880A9B01AC0189
:103B7000C501B4010F948D0E0F94F8104B015C0138
:103B80002FE632E143E85AE30F94230A87FD40C24F
:103B9000C501B4010F9402100F94D60F1B01672BBF
:103BA00019F422242394312CB10180E090E00F9489
:103BB000270A4B015C019B01AC01C701B6010F94C0
:103BC000690F22966CAF7DAF8EAF9FAF2297A50194
:103BD000940126966CAD7DAD8EAD9FAD26970F946A
:103BE000690FA2966CAF7DAF8EAF9FAFA297AE96D6
:103BF0002CAD3DAD4EAD5FADAE97A6966CAD7DAD37
:103C00008EAD9FADA6970F948C0EA50194010F94D5
:103C1000690FA6966CAF7DAF8EAF9FAFA697229629
:103C20002CAD3DAD4EAD5FAD2297CA01B9010F94E9
:103C3000880A20E030E040E05FE30F94880A9B01AF
:103C4000AC0160E070E080E89FE30F948C0E6A9610
:103C50006CAF7DAF8EAF9FAF6A97AA962CAD3DAD8E
:103C60004EAD5FADAA9729873A874B875C87AE96A2
:103C70008CAD9DADAEADBFADAE978D879E87AF8746
:103C8000B88B60919A0270919B02072E000C880BF2
:103C9000990B0F94290A2091790230917A02409170
:103CA0007B0250917C020F94880A2AE037ED43E2B0
:103CB0005CE30F94880A6AA37BA38CA39DA30E9454
:103CC0005D859B01AC0128533F4F4F4F5F4F6E9670
:103CD0002CAF3DAF4EAF5FAF6E974EA85FA868ACFC
:103CE00079AC41E050E02C965FAF4EAF2C9759E194
:103CF00023965FAF23972C96AEADBFAD2C97A21540
:103D0000B30509F44AC10E94915A0E945D85DC0105
:103D1000CB016E962CAD3DAD4EAD5FAD6E97821B67
:103D2000930BA40BB50BB7FD10C00E945D859B01E2
:103D3000AC0128533F4F4F4F5F4F6E962CAF3DAFB6
:103D40004EAF5FAF6E970E94C1BA23963FAD2397E7
:103D5000315023963FAF2397332309F445C06A9629
:103D60002CAD3DAD4EAD5FAD6A976AAD7BAD8CAD10
:103D70009DAD0F94880A6B017C0122962CAD3DAD60
:103D80004EAD5FAD2297B201C3010F94880AA7011F
:103D900096010F948D0E7B018C016A962CAD3DAD82
:103DA0004EAD5FAD6A97B201C3010F94880A4B0113
:103DB0005C0122962CAD3DAD4EAD5FAD22976AAD54
:103DC0007BAD8CAD9DAD0F94880A9B01AC01C50104
:103DD000B4010F948C0E2B013C01C701D8018AAFAE
:103DE0009BAFACAFBDAF5BC02C964EAD5FAD2C971B
:103DF000BA0180E090E00F94270A22962CAD3DADE9
:103E00004EAD5FAD22970F94880A4B015C010F9471
:103E1000660F6B017C01C501B4010F94EE104B01DC
:103E20005C01A70196016EA97FA988AD99AD0F9499
:103E3000880A2B013C01A50194012A966CAD7DAD49
:103E40008EAD9FAD2A970F94880A9B01AC01C301E8
:103E5000B2010F948D0E2B013C01A50194016EA9B6
:103E60007FA988AD99AD0F94880A4B015C01A70129
:103E700096012A966CAD7DAD8EAD9FAD2A970F94BD
:103E8000880A9B01AC01C501B4010F948C0E6AAF86
:103E90007BAF8CAF9DAF59E123965FAF2397920123
:103EA000A30162966CAD7DAD8EAD9FAD62970F9410
:103EB0008D0E69837A838B839C832AAD3BAD4CAD99
:103EC0005DAD66966CAD7DAD8EAD9FAD66970F9482
:103ED0008D0E6D837E838F839887A2962CAD3DAD2A
:103EE0004EAD5FADA29769857A858B859C850F94D1
:103EF0008D0E69877A878B879C87A6962CAD3DAD02
:103F00004EAD5FADA6976D857E858F8598890F94A0
:103F10008D0E6D877E878F87988B809176028823A0
:103F200021F0CE0101960E94E8E8E0901613898105
:103F30009A81AB81BC818E8B9F8BA88FB98F8D812D
:103F40009E81AF81B8858A8F9B8FAC8FBD8F89850D
:103F50009A85AB85BC858E8F9F8FA8A3B9A3CE0110
:103F600046960E9421908E010E5D1F4F9E01235F99
:103F70003F4FAE01425E5F4FBE01665E7F4FCE0196
:103F800046960E9461552C968EAD9FAD2C9701965A
:103F90002C969FAF8EAF2C97AECEE09016138091EB
:103FA000AE0C9091AF0CA091B00CB091B10C8E8B77
:103FB0009F8BA88FB98F8091B20C9091B30CA09178
:103FC000B40CB091B50C8A8F9B8FAC8FBD8F809154
:103FD000B60C9091B70CA091B80CB091B90C8E8F23
:103FE0009F8FA8A3B9A3CE0146960E9421908E016F
:103FF0000E5D1F4F2AEB3CE0AE01425E5F4FBE01FB
:10400000665E7F4FCE0146960E9461550E945B3BE3
:104010000E9429900C941735E0E6F8E184918F0115
:104020000F5F1F4F882321F00E942A39F801F6CF35
:10403000E1E2F2E084918F010F5F1F4F882311F4BA
:104040000C9417350E942A39F801F4CF80E50E94BC
:10405000083A882329F00E94488F6B017C0103C035
:10406000C12CD12C760183E50E94083A882361F0A7
:104070000E94A23920E030E04AE754E40F94880A15
:104080000F94D60F6B017C010E942C5C809116026C
:10409000811105C060E087E392E00E9438B70E947A
:1040A000299080910B1190910C11A0910D11B0915C
:1040B0000E11C80ED91EEA1EFB1E0E945D85DC0192
:1040C000CB018C199D09AE09BF09B7FD02C00C9444
:1040D00017350E94C1BAF1CF0E940E6F81110C9466
:1040E000173580E50E94083A882321F00E94723932
:1040F000F62E01C0F12C83E50E94083A882321F0B6
:104100000E9472398B0102C00CE010E0D02E84E5D1
:104110000E94083A882321F00E947239E62E02C0DC
:1041200073E0E72E82E50E94083A882329F00E9476
:10413000A2394B015C0106C0812C912C60EDA62EAA
:1041400060E4B62EB1E0FB1629F0E2E0FE1609F4B9
:10415000FBC0B4C180E090E0A8ECB2E48E8B9F8BF2
:10416000A88FB98F80E090E0A0E7B2E48A8F9B8FA0
:10417000AC8FBD8F80E090E0A0E8BFE38E8F9F8F73
:10418000A8A3B9A340E050E060EF71E449835A83EB
:104190006B837C834D835E836F83788789879A875F
:1041A000AB87BC8780918A0C90918B0CA0918C0C72
:1041B000B0918D0C8AAB9BABACABBDAB80918E0C40
:1041C00090918F0CA091900CB091910C8EA79FA70D
:1041D000A8ABB9AB8091920C9091930CA091940CE8
:1041E000B091950C8AA79BA7ACA7BDA71AA21BA24A
:1041F0001CA21DA29E012E5D3F4FAE01475F5F4F87
:10420000BE016B5F7F4FCE0101960E9405D70E2D38
:10421000000FA02EB12CB5010B2C000C880B990BB4
:104220000F94290A9B01AC0160E070E08CE892E4F5
:104230000F94690F2B013C01C12CCD1408F071C003
:1042400010E0812F012E000C990B8A159B059CF51F
:1042500010FD05C09E012F5F3F4F790104C0AE01E4
:104260004A5E5F4F7A011EA21FA218A619A6612FEF
:10427000012E000C770B880B990B0F94290AA301D0
:1042800092010F94880A9B01AC0169817A818B812C
:104290009C810F948D0E6AA37BA38CA39DA3B70171
:1042A0006C5F7F4FAE014A5D5F4FCE0182960E94E8
:1042B000E9D71F5FC6CF102F17FD31C010FD04C016
:1042C000CE0101967C0103C0DE0156967D011EA23F
:1042D0001FA218A619A6612F012E000C770B880BC0
:1042E000990B0F94290AA30192010F94880A9B014C
:1042F000AC0169817A818B819C810F948D0E6AA3B8
:104300007BA38CA39DA3B7016C5F7F4FAE014A5D79
:104310005F4FCE0182960E94E9D71150CDCFC39452
:104320008CCF1AA21BA21CA21DA29E012E5D3F4F84
:10433000AE01465D5F4FBE01625D7F4FCE01C2960A
:104340000E9405D70C94173580E090E0A0EFB1E40F
:1043500089839A83AB83BC838D839E83AF83B88725
:1043600080E090E0A0E8BFE389879A87AB87BC87AD
:10437000DD2011F40C94173580918A0C90918B0CF0
:10438000A0918C0CB0918D0C8AAB9BABACABBDAB50
:1043900080918E0C90918F0CA091900CB091910C0B
:1043A0008EA79FA7A8ABB9AB8091920C9091930C6C
:1043B000A091940CB091950C8AA79BA7ACA7BDA720
:1043C0001E8A1F8A188E198E9E012A5E3F4FAE01EB
:1043D000475F5F4FBE016B5F7F4FCE0101960E942A
:1043E00005D7F12C00E010E01E8A1F8A188E198E66
:1043F000B801012E000C880B990B0F94290A2CE7A9
:1044000039ED40E25FE30F94880A2B013C010F94E1
:10441000660FA50194010F94880A20E030E040EF78
:1044200051E40F948D0E6AA37BA38CA39DA3C301BB
:10443000B2010F94EE10A50194010F94880A20E0B8
:1044400030E040EF51E40F948D0E6EA37FA388A758
:1044500099A7AE014A5E5F4FBE016E5D7F4FCE01F0
:1044600086960E94E9D70F5F1F4F0A30110509F0A9
:10447000BBCFF394FD1408F4B5CF1E8A1F8A188EA3
:10448000198EAE014A5E5F4FBE016B5F7F4FCE015A
:1044900001960E94E9D71E8A1F8A188E198E9E01E6
:1044A0002A5E3F4FAE01465D5F4FBE01625D7F4FAA
:1044B000CE01C2960E9405D70C94173580E090E09B
:1044C000A8ECB2E489839A83AB83BC8380E090E05C
:1044D000A0E7B2E48D839E83AF83B88780E090E04D
:1044E000A0E8BFE389879A87AB87BC8740E050E0AC
:1044F00060EF71E44E8B5F8B688F798F4A8F5B8F93
:104500006C8F7D8F8E8F9F8FA8A3B9A380918A0C0B
:1045100090918B0CA0918C0CB0918D0C8EA79FA7C5
:10452000A8ABB9AB80918E0C90918F0CA091900CA0
:10453000B091910C8AA79BA7ACA7BDA78091920CC4
:104540009091930CA091940CB091950C8EA39FA385
:10455000A8A7B9A71AA21BA21CA21DA29E012E5D8C
:104560003F4FAE01425E5F4FBE01665E7F4FCE01A0
:1045700046960E9405D7112715950795F12C8F2D8A
:1045800090E01AA21BA21CA21DA280179107D4F4CE
:10459000AE014E5D5F4FBE016B5F7F4FCE01019656
:1045A0000E94E9D71AA21BA21CA21DA2AE014E5D59
:1045B0005F4FBE01665E7F4FCE0146960E94E9D7EF
:1045C000F394DDCF9E012E5D3F4FAE014A5D5F4FFC
:1045D000BE01665D7F4FCE018E960E9405D70C947A
:1045E00017350E94653B0C9417350E940E6F8111A0
:1045F0000C94173580E090E0A0E2B1E489839A83BF
:10460000AB83BC8380E090E0A1E9B3E48D839E831B
:10461000AF83B88780E090E0A0EAB1E489879A8709
:10462000AB87BC8780E50E94083A882319F00E9476
:10463000723901C060E080E090E0A8ECB2E48EA3A3
:104640009FA3A8A7B9A780E090E0A0EAB0E48AA35E
:104650009BA3ACA3BDA3613019F0623039F029C02F
:10466000BE016E5D7F4FCE01099644C029853A8513
:104670004B855C856091920C7091930C8091940CA9
:104680009091950C0F948D0E6B017C0120E030E031
:1046900048EC53E40F94230A87FD06C0C12CD12CAB
:1046A00048ECE42E43E4F42ECE8ADF8AE88EF98EBD
:1046B0001CC0E984FA840B851C85A090920CB090F4
:1046C000930CC090940CD090950C9501A601B70165
:1046D000C8010F94B310181614F075018601C701B4
:1046E000D8018E8B9F8BA88FB98FBE016E5D7F4FD7
:1046F000CE0146960E94EDD7AE014A5D5F4FBE01E6
:104700006B5F7F4FCE0101960E94E9D70C9417355D
:1047100080E00E94F4D70C94173583E50E94083A94
:10472000882319F00E94823901C080E0082F10E030
:104730000630110570F0E9EFF2E084918F010F5F10
:104740001F4F882311F40C9417350E942A39F80161
:10475000F4CF823009F44CC028F4882371F0813002
:1047600089F19EC1843009F48CC108F422C18530DE
:1047700009F096C10E94ADD693C18091A310882301
:1047800099F08091A810811103C063E473E002C026
:104790006FE373E081ED92E00E944F538AE00E9444
:1047A0002A390F94E5027CC1E9EDF2E084917F01A2
:1047B000BFEFEB1AFB0A882309F472C10E942A3961
:1047C000F701F4CF0E94CB9C1092010210920002DC
:1047D0008091A210811103C08FEB92E002C08AEC9D
:1047E00092E09093B9108093B8100E94428D58C106
:1047F000E0900002F0900102F7FE0EC0E6E9F2E060
:1048000084918F010F5F1F4F882311F40C9417358B
:104810000E942A39F801F4CFE114F10429F48091BF
:104820007602809371040DC08FEF8E0D0F944A01B4
:104830008091710480937602E9E0EE16F1040CF0A9
:104840006DC08E2D63E00F94551180FF03C022E0F0
:10485000291B922F4091920C5091930C6091940CD3
:104860007091950C4AA35BA36CA37DA319821A8255
:104870001B821C8240E050E060EA70E44E8B5F8B4C
:10488000688F798FF4E08F0290011124A9014F5DA8
:10489000504F6A0154E0950290011124C901835DD3
:1048A000904F7C019E012F5F3F4FAE014A5E5F4FEC
:1048B000B6010E9405D719821A821B821C82BE0192
:1048C0006F5F7F4FCE0182960E94EDD7F701808106
:1048D0009181A281B38180938A0C90938B0CA093D9
:1048E0008C0CB0938D0CF60180819181A281B381F3
:1048F00080938E0C90938F0CA093900CB093910C9E
:104900001092A21010927602809100029091010202
:1049100001969093010280930002C2C080E090E073
:10492000A0EAB0E48093920C9093930CA093940C23
:10493000B093950C0E94B8D60E942C5C8FEF9FEF2D
:104940009093010280930002E2E8F2E084917F01FB
:104950002FEFE21AF20A882321F00E942A39F70188
:10496000F5CF83E992E09A83898334E6E32EF12C34
:10497000FF8AEE8ABE016F5F7F4FCE0146960E948E
:10498000166B8AEB92E09A838983FF8AEE8ABE01D6
:104990006F5F7F4FCE0146960E94166B81E0809339
:1049A000A3100E94F4D781E00E9492D61092A21028
:1049B00077C088E50E94083A8823B1F00E947239D6
:1049C000FF24FA94F60E32E03F15A8F4EBE6F2E08D
:1049D00084918F010F5F1F4F882311F40C941735BA
:1049E0000E942A39F801F4CF88E50E942A390F94F1
:1049F00099030C94173589E50E94083A8823B1F091
:104A00000E947239EE24EA94E60E42E04E15A8F4B4
:104A1000E4E5F2E084918F010F5F1F4F882311F4CA
:104A20000C9417350E942A39F801F4CF89E50E94C9
:104A30002A390F9499030C9417358AE50E94083A95
:104A40008823C1F00E94A2392F2D30E0F901EE0F2A
:104A5000FF1FE20FF31FEE0DF11DE7FCFA95EE0FBD
:104A6000FF1FEE0FFF1FE75BF34F608371838283AD
:104A7000938316C08AE50E942A390F9499030C94F7
:104A800017358AE50E94083A8823A1F30E94A239CB
:104A90006093A4107093A5108093A6109093A71014
:104AA0000150110902301105B0F4609100027091BB
:104AB00001026A30710514F069E070E085E492E06B
:104AC0000E94365369E070E080E492E00E94365321
:104AD0008AE00E942A390E946B930C94173581E07A
:104AE000809370040C9417350E942C5CF2EA2F2EF0
:104AF000F2E03F2EAFEBCA2EA2E1DA2EE12CF12C30
:104B000000E010E01EAAD1018D911D010E94083A1B
:104B1000882309F451C00E94A2394B015C01033083
:104B2000110559F0F701E959FE4E2081318142818A
:104B300053810F948C0E4B015C01F701E657F34F44
:104B40002081318142815381C501B4010F948C0EC3
:104B50002B013C012DEB37E346E855EB0F94B310E6
:104B600087FD0AC02DEB37E346E855E3C301B201E8
:104B70000F94230A181604F50330110559F4809296
:104B8000960C9092970CA092980CB092990CB1E070
:104B9000BEAB12C0A3019201F601608171818281D6
:104BA00093810F948D0ED6016D937D938D939C937D
:104BB0001397C8010E94018D0F5F1F4FB4E0CB0E09
:104BC000D11CE4E0EE0EF11C0430110509F09BCF7E
:104BD000FEA9FF2309F47FCF0E942C6D7CCF80912A
:104BE0000E02882311F40C94173589E40E94083AC8
:104BF000F82E882321F00E947239062F01C000E0B0
:104C00008AE40E94083AE82E882331F00E94723923
:104C1000162FF11004C00AC010E0FF20B1F00330DD
:104C200010F40C946638E0E1F3E003C01330D8F7D9
:104C30000CC084918F010F5F1F4F882311F40C94D7
:104C400017350E942A39F801F4CF0E94143AFF2048
:104C500091F024E00202F0011124E35DF04F808125
:104C60009181A281B3818093AE0C9093AF0CA093FD
:104C7000B00CB093B10CEE2091F034E01302F001CF
:104C80001124EF5DF04F80819181A281B3818093E7
:104C9000B20C9093B30CA093B40CB093B50C80E518
:104CA0000E94083A882319F00E94933903C080E5D6
:104CB0000E94D93986E40E94083A8823D9F00E94DC
:104CC000A2396B017C0120E030E0A9010F94B31000
:104CD000181684F420E030E040E752E4C701B60142
:104CE0000F94690F6093790270937A0280937B022C
:104CF00090937C020E9497BE0C9417358091A40A71
:104D00009091A50A8A37910511F40C9498340CF00F
:104D1000B6C08C35910509F4EEC40CF061C08B343B
:104D2000910509F455C2C4F58231910509F4DFC437
:104D300084F497FF02C00C941735823091050CF46F
:104D400063C1419711F00C9417350E943FD40C9425
:104D500017358A32910509F4F7C18133910509F4B9
:104D600033C24F9711F00C94173589E59FE00E94EC
:104D7000B85B6E8B7F8B888F998FBE016F5F7F4F83
:104D8000CE0146960E94588F60E0CE0101960E94A7
:104D900058B7EAE5F8E1C2C18135910509F49AC432
:104DA00064F48D34910509F41BC20CF415C28E34E1
:104DB000910509F419C20C9417358335910509F44E
:104DC00091C40CF48BC48435910509F490C48535E5
:104DD000910511F00C9417350E940A950C94173523
:104DE0008037910509F4F0C30CF58B36910509F471
:104DF0006DC464F48936910509F438C40CF062C4BA
:104E00008836910509F401C30C9417358D36910548
:104E100009F438C40CF4D4C38E36910509F44CC39C
:104E20008F36910509F45BC30C94173585379105CE
:104E300009F46BC47CF48237910509F460C40CF466
:104E4000CBC38337910511F00C9417350E9424933E
:104E50000C9417358737910509F464C40CF45EC4CB
:104E60008837910509F4C4C48937910511F00C9471
:104E7000173510923A0F1092390F0C9417358D3266
:104E800041E0940709F4C6C60CF04FC08C3C910574
:104E900009F424C50CF58E3B910509F4F7C374F4AD
:104EA0008139910509F4ABC48B39910509F4E6C346
:104EB0008C38910511F00C941735BAC3893C9105D3
:104EC00009F4E9C48B3C910509F4E9C4883C9105D7
:104ED00011F00C94173597C48C3D910509F4E8C581
:104EE00074F48E3C910509F401C50CF4FBC4833DB8
:104EF000910511F00C941735EAE5F8E1FBC4823E08
:104F0000910509F427C634F48D3D910509F4DDC5FA
:104F10000C9417358232A1E09A0709F445C68C3209
:104F2000914009F44EC60C9417358C3AE1E09E0787
:104F300011F40C94403494F5833621E0920711F477
:104F40000C949B346CF48F3241E0940709F4D1C780
:104F50000CF47BC78033914009F4FAC60C941735E2
:104F60008A39B1E09B0709F433C34CF4803991408E
:104F700011F00C9417350E942C5C0C941735843A70
:104F800021E0920711F40C947833853A914011F0A6
:104F90000C9417350E94EA680C941735873F41E05E
:104FA000940711F40C94493494F4853FA1E09A07D6
:104FB00011F40C94433414F00C944634843F914023
:104FC00011F00C9417350E946DE30C9417358F384F
:104FD000F3E09F0711F40C944C344CF48A3893405E
:104FE00011F00C9417350E94C3F50C9417358039D5
:104FF00043E0940711F40C944F34873E934011F42E
:105000000C94B2340C941735A090A20AB090A30A65
:1050100080E50E94083A882359F00E94488F6B016E
:105020007C0111E0672B682B692B31F410E004C080
:1050300010E0C12CD12C760183E50E94083A882328
:10504000F1F00E94A23920E030E04AE754E40F94E6
:10505000880A0F94D60F6B017C01111112C0672BC7
:10506000682B692B71F4A114B10459F0D5018C910E
:10507000882339F061E0C5010E9458B707C01123A9
:1050800091F360E08EE493E00E9438B783E090E013
:10509000909305118093041181E08093E2100E94A7
:1050A0002C5C0E942990C114D104E104F104E9F0C0
:1050B00080910B1190910C11A0910D11B0910E11D6
:1050C000C80ED91EEA1EFB1E0E945D85DC01CB01C5
:1050D0008C199D09AE09BF09B7FF1CC08091E21071
:1050E0008823C1F00E94C1BAEFCF8091E2108823DB
:1050F00019F00E94C1BAF9CF8091590F90915A0FBF
:1051000060E0029719F48EE393E002C08FE293E02F
:105110000E9438B71092E2100C94173584918F01D9
:105120000F5F1F4F882321F00E942A39F801F6CF24
:10513000BE016F5F7F4F81E693E00E944F538AE08C
:105140000E942A390C94173583E50E94083A882377
:1051500011F40C9417350E948239E82E80E50E94E4
:10516000083A882341F00E9472398B0177FF02C010
:105170000C94173502C00DE010E0902FE6EAF4E041
:1051800088E28E0F2491921729F031968E13FACF70
:105190000C942335E0E6F8E184918F010F5F1F4FF7
:1051A000882321F00E942A39F801F6CFEEE6F3E0D9
:1051B00084918F010F5F1F4F882311F40C941735D2
:1051C0000E942A39F801F4CF0E9417D40C941735A5
:1051D0000E94B76F0C9417350E9400D40C941735B9
:1051E0000E94D2690C94173583E50E94083A8823FF
:1051F00059F00E9472396E34710531F489E59FE0EF
:105200000E9485530C9417351E8A1F8A188E198E9A
:10521000EDEDF3E084918F010F5F1F4F882321F0A4
:105220000E942A39F801F6CFE4EDF3E084918F0172
:105230000F5F1F4F882321F00E942A39F801F6CF13
:105240006091670F7091680F80E090E04AE00E94E3
:105250003490E7ECF3E084918F010F5F1F4F8823B8
:1052600021F00E942A39F801F6CF6091690F709100
:105270006A0F80E090E04AE00E943490ECEBF3E0AB
:1052800084918F010F5F1F4F882321F00E942A39DC
:10529000F801F6CF6091670F7091680F8091690FE8
:1052A00090916A0F681B790B8091590F90915A0F5A
:1052B000019721E030E0029710F020E030E0621B1F
:1052C000730B80E090E04AE00E9434908AE00E94F4
:1052D0002A39E4EBF3E084918F010F5F1F4F88239D
:1052E00021F00E942A39F801F6CF80916B0F90913E
:1052F0006C0FA0916D0FB0916E0F8E8B9F8BA88F4E
:10530000B98FBE016F5F7F4FCE0146960E94588FC6
:10531000E7EAF3E084918F010F5F1F4F811105C011
:10532000FE0131967F018F0104C00E942A39F801E5
:10533000F1CFD8018D918D01882319F00E942A396F
:10534000F8CF80916F0F9091700FA091710FB09175
:10535000720F8E8B9F8BA88FB98FBE016F5F7F4FAF
:10536000CE0146960E94588FE7E9F3E084918F01C1
:105370000F5F1F4F882321F00E942A39F801F6CFD2
:10538000F70181917F01882319F00E942A39F8CF13
:105390008AE00E942A39EFE8F3E084918F010F5FE1
:1053A0001F4F882321F00E942A39F801F6CFEFE73A
:1053B000F3E084918F010F5F1F4F882321F00E943B
:1053C0002A39F801F6CF20E030E04AE754E4609152
:1053D000730F7091740F8091750F9091760F0F94E9
:1053E000690F42E00E94F890EDE7F3E084918F01AD
:1053F0000F5F1F4F882321F00E942A39F801F6CF52
:105400008AE00E942A390C94173588E690E00E94C1
:105410009C9081110C9417358091A90A83FF02C0DA
:105420000C94173583E50E94083A882309F440C09C
:105430000E94A2390F94D10F70931113609310132F
:1054400080E00E948EE20E94A23920E030E044EB2E
:1054500052E40F94230A18163CF00E94D26960E0CF
:105460008CEE93E00E9438B70E94A23920915F1120
:105470003091601140916111509162110F94B310FD
:105480001816B4F48EE593E09F938F938091DF120A
:1054900090E001969F938F9385EE93E09F938F9377
:1054A0001F920E94F16E0FB6F894DEBF0FBECDBF03
:1054B0000E949A530C9417358EE40E94083A882370
:1054C00011F40C9417350E9472396093C00C7093DC
:1054D000C10C8093C20C9093C30C0C94173583E5D8
:1054E0000E94D939882359F083E50E94083A88231D
:1054F00019F00E94823901C080E08093A90AEAE590
:10550000F8E184918F010F5F1F4F882321F00E94E3
:105510002A39F801F6CFEAE0F4E084918F010F5FB9
:105520001F4F882321F00E942A39F801F6CF80917D
:10553000A90A8823A1F1ECEFCE2EE3E0DE2EE12CC8
:10554000F12C20E08091A90A90E00E2C02C09595E4
:1055500087950A94E2F780FF17C0BB24B394B20E7C
:10556000222319F08CE20E942A39F6012591349108
:10557000F901849189010F5F1F4F882321F00E9458
:105580002A399801F5CF2B2DFFEFEF1AFF0A32E0F1
:10559000C30ED11C45E0E416F104A1F60CC0E6E010
:1055A000F4E084918F010F5F1F4F882321F00E9448
:1055B0002A39F801F6CF8AE00E942A390C9417356F
:1055C000109202020C94173581E194E00E9458BABF
:1055D0000E94AE910C94173583E50E94083A882307
:1055E00069F00E9482398D3320F480937D020C94FF
:1055F00017358CE380937D020C941735EAE5F8E1CA
:1056000084918F010F5F1F4F882321F00E942A3958
:10561000F801F6CF40917D0250E060E070E08AE151
:1056200094E00E94DF528AE00E942A390C941735D8
:105630008091A90A83FF02C00C94173583E50E946C
:10564000083A882311F40C9417350E94A2390F945C
:10565000D10F6937710514F068E770E070930F138C
:1056600060930E130E9443E20C9417350E94E3D31B
:1056700010920511109204110C949A380E94B5D31F
:105680000C9417350E9409960C9417358091A90A3D
:1056900083FF02C00C94173560E08FE294E00E9413
:1056A00038B783E50E94083A27968FAF2797811174
:1056B0000C94403582E50E94083A81110C944035E3
:1056C0000C9417350E948AD30C9417350E94CD97FD
:1056D0000C9417350E947B950C94173510926F042B
:1056E0000C94173581E080936F040C9417350E9459
:1056F00022950C9417350E946C940C9417350E94D7
:105700002C5C0E946B930C94173560E08091A20A88
:105710009091A30A0E9458B70C9417350E94E39207
:105720000C941735E4E5F4E084918F010F5F1F4F6F
:10573000882321F00E942A39F801F6CFECE4F4E046
:1057400084918F010F5F1F4F882321F00E942A3917
:10575000F801F6CF659903C007E413E002C00CE43A
:1057600013E0D8018D918D01882319F00E942A3908
:10577000F8CF8AE00E942A39E4E4F4E084918F01B2
:105780000F5F1F4F882321F00E942A39F801F6CFBE
:105790008091030181FD03C007E413E002C00CE423
:1057A00013E0F80181918F01882319F00E942A39B2
:1057B000F8CF8AE00E942A39ECE3F4E084918F016B
:1057C0000F5F1F4F882321F00E942A39F801F6CF7E
:1057D0004B9903C007E413E002C00CE413E0D801C6
:1057E0008D918D01882309F4E6CE0E942A39F7CFE6
:1057F00081E080933A0F8093390F0C9417350E9403
:1058000092950C94173588EC90E00E949C90811141
:105810000C94173584E40E94D9398823C1F10E9481
:10582000A23911E020E030E0A9010F94230A811190
:1058300001C010E01093F00F112349F10E94A2392A
:10584000E091DF12B4E0EB9FF0011124E451F04F3E
:10585000608371838283938320E030E0A9016091AB
:10586000EC0F7091ED0F8091EE0F9091EF0F0F9470
:10587000230A81110CC080E090E0A0EEBFE380938A
:10588000EC0F9093ED0FA093EE0FB093EF0F0E94EB
:10589000E2970C9417350E94BE920C94173544EA97
:1058A000E42E4FE0F42E02EA12E054E0D52ED00EA2
:1058B000F80181918F010E94D939882341F00E941B
:1058C000A239D7016D937D938D939C931397B4E088
:1058D000EB0EF11CD012ECCF0C9417350E945592B0
:1058E0000C9417350E94EC910C9417350E9441944A
:1058F0000C94173584918F010F5F1F4F882321F07F
:105900000E942A39F801F6CF83E50E94D93988230D
:1059100021F00E94933980937602E6E9F4E08491C5
:105920008F010F5F1F4F882321F00E942A39F80151
:10593000F6CF80917602811103C0E2E9F4E002C063
:10594000EEE8F4E084918F010F5F1F4F882321F070
:105950000E942A39F801F6CFE6E8F4E084918F013D
:105960000F5F1F4F882321F00E942A39F801F6CFDC
:1059700020916711309168114091691150916A111D
:105980006091BA107091BB108091BC109091BD10C5
:105990000F948D0EAB01BC0184E894E00E94195372
:1059A00020916B1130916C1140916D1150916E11DD
:1059B0006091BE107091BF108091C0109091C11085
:1059C0000F948D0EAB01BC0181E894E00E94195345
:1059D00020916F113091701140917111509172119D
:1059E0006091C2107091C3108091C4109091C51045
:1059F0000F948D0EAB01BC018EE794E00E94195309
:105A0000E6E7F4E084918F010F5F1F4F882321F0B8
:105A10000E942A39F801F6CF209167113091681160
:105A20004091691150916A1160916A0270916B0204
:105A300080916C0290916D020F948D0EAB01BC01B0
:105A400084E794E00E94195320916B1130916C11FE
:105A500040916D1150916E1160916E0270916F02C4
:105A600080917002909171020F948D0EAB01BC0178
:105A700081E794E00E94195320916F1130917011C9
:105A80004091711150917211609172027091730284
:105A900080917402909175020F948D0EAB01BC0140
:105AA0008EE694E00E9419538AE00E942A39BFC70B
:105AB00083E50E94083A882309F4B9C70E94723925
:105AC00070939B0260939A02B2C78DED90E00E94A2
:105AD0009C908111ACC783E50E94083A882309F4A1
